{
  "contractName": "EcMul",
  "abi": [
    {
      "constant": true,
      "inputs": [
        {
          "name": "x",
          "type": "uint256"
        },
        {
          "name": "y",
          "type": "uint256"
        },
        {
          "name": "scalar",
          "type": "uint256"
        }
      ],
      "name": "ecmul",
      "outputs": [
        {
          "name": "p",
          "type": "uint256[2]"
        }
      ],
      "payable": false,
      "stateMutability": "view",
      "type": "function"
    }
  ],
  "bytecode": "0x6060604052341561000f57600080fd5b6101ae8061001e6000396000f300606060405260043610610041576000357c0100000000000000000000000000000000000000000000000000000000900463ffffffff1680638081a1e714610046575b600080fd5b341561005157600080fd5b61007960048080359060200190919080359060200190919080359060200190919050506100b7565b6040518082600260200280838360005b838110156100a4578082015181840152602081019050610089565b5050505090500191505060405180910390f35b6100bf610133565b6100c761015a565b848160006003811015156100d757fe5b602002018181525050838160016003811015156100f057fe5b6020020181815250508281600260038110151561010957fe5b60200201818152505060408260608360006007600019f1151561012b57600080fd5b509392505050565b60408051908101604052806002905b60008152602001906001900390816101425790505090565b6060604051908101604052806003905b600081526020019060019003908161016a57905050905600a165627a7a72305820d1b31ce893a7b62affe996715b47c815775de694c376e76ad8dbf0a52bcc06b20029",
  "source": "pragma solidity ^0.4.19;\n\ncontract EcMul{\n function ecmul(uint256 x, uint256 y, uint256 scalar) public constant returns(uint256[2] p) {\n    // With a public key (x, y), this computes p = scalar * (x, y).\n    uint256[3] memory input;\n    input[0] = x;\n    input[1] = y;\n    input[2] = scalar;\n    assembly {\n      // call ecmul precompile\n      if iszero(call(not(0), 0x07, 0, input, 0x60, p, 0x40)) {\n        revert(0, 0)\n      }\n    }\n  } \n}\n",
  "sourcePath": "/home/coenie/workspace/MimbleWimble/SolidityEC/contracts/EcMul.sol",
  "compiler": {
    "name": "solc",
    "version": "0.4.19+commit.c4cbbb05.Emscripten.clang"
  },
  "schemaVersion": "1.0.1",
  "updatedAt": "2018-01-23T09:18:31.562Z"
}