{
  "contractName": "EcOperations",
  "abi": [
    {
      "constant": false,
      "inputs": [],
      "name": "verifyRingSigGasCosts",
      "outputs": [
        {
          "name": "p",
          "type": "uint256[2]"
        }
      ],
      "payable": true,
      "stateMutability": "payable",
      "type": "function"
    },
    {
      "constant": false,
      "inputs": [
        {
          "name": "x",
          "type": "uint256"
        },
        {
          "name": "y",
          "type": "uint256"
        },
        {
          "name": "scalar",
          "type": "uint256"
        }
      ],
      "name": "ecmul",
      "outputs": [
        {
          "name": "p",
          "type": "uint256[2]"
        }
      ],
      "payable": true,
      "stateMutability": "payable",
      "type": "function"
    },
    {
      "constant": false,
      "inputs": [
        {
          "name": "ax",
          "type": "uint256"
        },
        {
          "name": "ay",
          "type": "uint256"
        },
        {
          "name": "bx",
          "type": "uint256"
        },
        {
          "name": "by",
          "type": "uint256"
        }
      ],
      "name": "ecadd",
      "outputs": [
        {
          "name": "p",
          "type": "uint256[2]"
        }
      ],
      "payable": true,
      "stateMutability": "payable",
      "type": "function"
    }
  ],
  "bytecode": "0x6060604052341561000f57600080fd5b6103db8061001e6000396000f300606060405260043610610057576000357c0100000000000000000000000000000000000000000000000000000000900463ffffffff16806369505d9a1461005c5780638081a1e7146100a2578063bb8c256a14610108575b600080fd5b610064610177565b6040518082600260200280838360005b8381101561008f578082015181840152602081019050610074565b5050505090500191505060405180910390f35b6100ca6004808035906020019091908035906020019091908035906020019091905050610226565b6040518082600260200280838360005b838110156100f55780820151818401526020810190506100da565b5050505090500191505060405180910390f35b61013960048080359060200190919080359060200190919080359060200190919080359060200190919050506102a2565b6040518082600260200280838360005b83811015610164578082015181840152602081019050610149565b5050505090500191505060405180910390f35b61017f610338565b61018761035f565b600181600060048110151561019857fe5b60200201818152505060028160016004811015156101b257fe5b60200201818152505060018160026004811015156101cc57fe5b60200201818152505060028160036004811015156101e657fe5b60200201818152505061010060005b8181146102205760408460808560006006600019f1151561021557600080fd5b6001810190506101f5565b50505090565b61022e610338565b610236610387565b8481600060038110151561024657fe5b6020020181815250508381600160038110151561025f57fe5b6020020181815250508281600260038110151561027857fe5b60200201818152505060408260608360006007600019f1151561029a57600080fd5b509392505050565b6102aa610338565b6102b261035f565b858160006004811015156102c257fe5b602002018181525050848160016004811015156102db57fe5b602002018181525050838160026004811015156102f457fe5b6020020181815250508281600360048110151561030d57fe5b60200201818152505060408260808360006006600019f1151561032f57600080fd5b50949350505050565b60408051908101604052806002905b60008152602001906001900390816103475790505090565b6080604051908101604052806004905b600081526020019060019003908161036f5790505090565b6060604051908101604052806003905b600081526020019060019003908161039757905050905600a165627a7a7230582044c733e8b2807162fc028ce88f575f1f7bf55551386169855cc86cab2c1428e30029",
  "source": "pragma solidity ^0.4.19;\n\ncontract EcOperations{\n  function ecadd(uint256 ax, uint256 ay, uint256 bx, uint256 by) public payable returns(uint256[2] p) {\n    uint256[4] memory input;\n    input[0] = ax;\n    input[1] = ay;\n    input[2] = bx;\n    input[3] = by;\n    assembly {\n      if iszero(call(not(0), 0x06, 0, input, 0x80, p, 0x40)) {\n        revert(0, 0)\n      }\n    }\n  } \n  function ecmul(uint256 x, uint256 y, uint256 scalar) public payable returns(uint256[2] p) {\n    uint256[3] memory input;\n    input[0] = x;\n    input[1] = y;\n    input[2] = scalar;\n    assembly {\n      // call ecmul precompile\n      if iszero(call(not(0), 0x07, 0, input, 0x60, p, 0x40)) {\n        revert(0, 0)\n      }\n    }\n  } \n  function verifyRingSigGasCosts() public payable returns(uint256[2] p) {\n    uint256[4] memory input;\n    input[0] = 1;\n    input[1] = 2;\n    input[2] = 1;\n    input[3] = 2;\n    assembly {\n      let n := 256\n      let i := 0\n      loop:\n        jumpi(end, eq(i, n))\n        if iszero(call(not(0), 0x06, 0, input, 0x80, p, 0x40)){\n          revert(0, 0) \n        }\n        i := add(i, 1)\n        jump(loop)\n      end:\n    }\n  } \n}\n",
  "sourcePath": "/home/coenie/workspace/MimbleWimble/SolidityEC/contracts/EcOperations.sol",
  "compiler": {
    "name": "solc",
    "version": "0.4.19+commit.c4cbbb05.Emscripten.clang"
  },
  "schemaVersion": "1.0.1",
  "updatedAt": "2018-01-23T13:54:41.071Z"
}