{
  "contractName": "EcOperations",
  "abi": [
    {
      "constant": false,
      "inputs": [
        {
          "name": "x",
          "type": "uint256"
        },
        {
          "name": "y",
          "type": "uint256"
        },
        {
          "name": "scalar",
          "type": "uint256"
        }
      ],
      "name": "ecmul",
      "outputs": [
        {
          "name": "p",
          "type": "uint256[2]"
        }
      ],
      "payable": true,
      "stateMutability": "payable",
      "type": "function"
    }
  ],
  "bytecode": "0x6060604052341561000f57600080fd5b6101a38061001e6000396000f300606060405260043610610041576000357c0100000000000000000000000000000000000000000000000000000000900463ffffffff1680638081a1e714610046575b600080fd5b61006e60048080359060200190919080359060200190919080359060200190919050506100ac565b6040518082600260200280838360005b8381101561009957808201518184015260208101905061007e565b5050505090500191505060405180910390f35b6100b4610128565b6100bc61014f565b848160006003811015156100cc57fe5b602002018181525050838160016003811015156100e557fe5b602002018181525050828160026003811015156100fe57fe5b60200201818152505060408260608360006007600019f1151561012057600080fd5b509392505050565b60408051908101604052806002905b60008152602001906001900390816101375790505090565b6060604051908101604052806003905b600081526020019060019003908161015f57905050905600a165627a7a723058201759c6c2cf64c8aab4b1752ee4e9846d29285c05b94b2a1486e588cb1f1f03a80029",
  "source": "pragma solidity ^0.4.19;\n\ncontract EcOperations{\n function ecmul(uint256 x, uint256 y, uint256 scalar) public payable returns(uint256[2] p) {\n    // With a public key (x, y), this computes p = scalar * (x, y).\n    uint256[3] memory input;\n    input[0] = x;\n    input[1] = y;\n    input[2] = scalar;\n    assembly {\n      // call ecmul precompile\n      if iszero(call(not(0), 0x07, 0, input, 0x60, p, 0x40)) {\n        revert(0, 0)\n      }\n    }\n  } \n}\n",
  "sourcePath": "/home/coenie/workspace/MimbleWimble/SolidityEC/contracts/EcOperations.sol",
  "compiler": {
    "name": "solc",
    "version": "0.4.19+commit.c4cbbb05.Emscripten.clang"
  },
  "schemaVersion": "1.0.1",
  "updatedAt": "2018-01-23T13:24:18.629Z"
}